:020000040800F2
:10000000C80C0020A9010008DF170008011500082E
:10001000C5170008D9020008F521000800000000FB
:10002000000000000000000000000000391B000874
:100030005903000800000000E91A00083B1B0008F3
:10004000C3010008C3010008C3010008C301000880
:10005000C3010008C3010008C3010008C301000870
:10006000C3010008C3010008C3010008C301000860
:10007000C3010008C3010008C3010008C301000850
:10008000C3010008C3010008C3010008000000000C
:10009000000000000000000000000000C301000894
:1000A000C3010008C3010008C3010008C301000820
:1000B000C3010008C3010008C3010008C301000810
:1000C000C3010008C3010008C3010008C301000800
:1000D000C3010008F51E0008891F00080000000089
:1000E000C3010008C3010008C301000800000000AC
:1000F000000000000000000000000000C301000834
:1001000000000000C3010008C3010008C30100088B
:1001100000000000000000000000000000000000DF
:10012000C3010008C3010008C3010008C30100089F
:10013000C3010008000000000000000000000000F3
:10014000000000000000000000000000C3010008E3
:10015000C3010008C3010008C3010008C30100086F
:10016000C3010008C30100080000000000000000F7
:10017000000000000000000000000000000000007F
:1001800000000000C30100080000000000000000A3
:10019000C3010008DFF80CD000F08CF800480047DD
:1001A00075250008C80C002006488047064800470F
:1001B000FEE7FEE7FEE7FEE7FEE7FEE7FEE7FEE717
:1001C000FEE7FEE7D51B0008950100082DE9F05F6A
:1001D0000546002092469B468846064681464024B6
:1001E0001BE0284641464746224600F053F8534656
:1001F0005A46C01A914110D311461846224600F0C3
:100200003AF82D1A67EB01084F46224601200021DB
:1002100000F031F817EB00094E41201EA4F1010453
:10022000DFDC484631462A464346BDE8F09F40EAB7
:1002300001039B0703D009E008C9121F08C0042A64
:10024000FAD203E011F8013B00F8013B521EF9D24B
:100250007047D2B201E000F8012B491EFBD2704773
:100260000022F6E710B513460A4604461946FFF782
:10027000F0FF204610BD202A04DB203A00FA02F1EC
:10028000002070479140C2F1200320FA03F3194384
:1002900090407047202A04DB203A21FA02F0002126
:1002A000704721FA02F3D040C2F120029140084386
:1002B00019467047064C074D06E0E06840F0010320
:1002C00094E8070098471034AC42F6D3FFF766FF76
:1002D00084280008A4280008FEE70000016818230D
:1002E000CAB2103AB2FBF3F2054B6FF30901032ACD
:1002F0009B5CC36500D9091D8165084670470000F5
:100300001C28000810B5014600208B698A6A4FF04E
:10031000C07453B1B3F5005F15D072B1012A0CD08F
:10032000022A0AD0032A09D104E01AB1012A06D010
:10033000022A03D1C96AC90100D5012010BDC96ACA
:10034000A142FAD010BD002AF7D0012AF2D0022A29
:10035000F3D0032AF3D010BD704772B6FEE7000059
:100360002DE9F041044600F06BF906465CB100252A
:1003700084F83450022084F835002068016821F0A8
:10038000010101600DE00120BDE8F08100F058F9A5
:10039000801B052805D920206065032084F83500DE
:1003A000F2E720680068C007F0D122681168204891
:1003B0000140D4E901031843D4E903363343184319
:1003C00063691843A3691843E3691843236A184310
:1003D0000843616A042903D1D4E90B131943084384
:1003E000106020684069666A20F0070130460E43BD
:1003F000012704280CD1A06A0643E06A40B12046D8
:10040000FFF780FF20B14020606584F83570BAE7BF
:10041000206846612046FFF761FF94F85C203F2189
:1004200091408160656584F835700020ACE700007C
:100430003F8010F070B5044600F002F90546601CDC
:1004400002D004480078044400F0FAF8401BA042AF
:10045000FAD370BD000000202DE9F84FDFF8B4A1F9
:10046000002201240AF1040B03254FF00F090BF1C0
:10047000040E00BF0B6804FA02F63340B34272D197
:100480000F7907F00307012F01D0022F16D18768DB
:100490004FEA420805FA08FC27EA0C07D1F80CC01D
:1004A0000CFA08FC4CEA070CC0F808C04768B743D0
:1004B0000E79C6F3001696403E4346600E79F64329
:1004C000B6070DD0C768560005FA06FC27EA0C07E8
:1004D000D1F808C00CFA06FC4CEA070CC0F80CC0B6
:1004E0000E7906F00306022E10D1D60800EB86081E
:1004F000D8F8206057074FEAD76C09FA0CF7BE43CB
:100500000F6907FA0CF73743C8F8207006684FEAFE
:10051000420C05FA0CF7BE430F7907F0030707FA00
:100520000CF7374307604E68F6006DD53A4E3768D2
:1005300047F480473760366822F0030706F48046A8
:100540000096364E07EB060CDCF8086897073F0F5D
:1005500009FA07F826EA0806DFF8C480404503D107
:100560004FF000081EE04FE0DFF8B880404502D1B0
:100570004FF0010816E0DFF8B080404502D14FF09F
:1005800002080FE0DFF8A480404502D14FF00308D5
:1005900008E0DFF89C80404502D14FF0040801E0FC
:1005A0004FF0070808FA07F848EA0608CCF8088868
:1005B000DAF800605746D1F804C09E435FEACC3CAD
:1005C00000D51E433E60DBF800605F46D1F804C0F2
:1005D0009E435FEA8C3C00D51E433E60DEF800601F
:1005E0007746D1F804C09E435FEACC2C00D51E4369
:1005F0003E60084F0C373E68D1F804C09E435FEA66
:100600008C2C00D51E433E60521C102AFFF432AFE2
:10061000BDE8F88F003C0140443802400030014002
:10062000000002400004024000080240000C0240AA
:10063000001002400AB1816170470904FBE7000025
:1006400001488068704700000000002070B5040079
:1006500025D094F83D00002520B984F83C50204670
:1006600000F0B8F8242084F83D002068016821F0EB
:10067000010101602068016841F4004101602068C7
:10068000016821F40041016000F040FA4D4A6168C0
:10069000914201D84C4900E04C49884201D20120E6
:1006A00070BD4B492368B0FBF1F15E6826F03F0650
:1006B0000E435E606368934206D94FF496735943C4
:1006C0004FF47A73B1FBF3F12368491C1E6A26F0DC
:1006D0003F06314319626168914210D84900401EBB
:1006E000B0FBF1F2521CC2F30B02042A01D2042027
:1006F00022E0B0FBF1F0401CC0F30B001CE0A2684C
:10070000F2B301EBC10303EB0116431EB3FBF6F397
:100710005B1C43F480431B0549D092B301EBC1023B
:1007200002EB0111401EB0FBF1F0401CC0F30B00C6
:1007300040F4804040F400402168CA694CF6FF73E1
:100740009A431043C861D4E9071001432068026846
:1007500022F0C00211430160D4E903010143206883
:10076000826848F2FF339A4311438160D4E905015E
:1007700008432168CA6822F0FF021043C86001E004
:100780000EE016E02068016841F001010160256477
:10079000202084F83D00256384F83E50002070BD81
:1007A00001EB4106431EB3FBF6F35B1CB3E70120EC
:1007B000C2E701EB4101401EB0FBF1F0401CC0F369
:1007C0000B00B7E7A086010080841E0000093D00F1
:1007D00040420F002DE9F04186B0044614216846DE
:1007E000FFF73EFD22682B4C294B2A481225012693
:1007F00003270421DFF8A08010349A4218D1026840
:1008000042F002020260006800F002000590CDE9AB
:10081000037138028DE8610069464046FFF71CFE0F
:10082000206840F400102060206800F400102BE0E5
:100830001A4B9A4229D1026842F001020260026812
:1008400002F001020592026842F0020202600068B2
:1008500000F002000590CDE9037198158DE8610064
:1008600069460F48FFF7F8FD10208DE8E1000920E8
:10087000049069464046FFF7EFFD206840F4000011
:100880002060206800F40000059006B0BDE8F0810B
:10089000005400403038024000040240005C004038
:1008A000000002400248816802781144816070476C
:1008B000000000200B4810B5016841F40071016090
:1008C000016841F480610160016841F48071016058
:1008D000032000F06FF8002000F006F800F024F884
:1008E000002010BD003C024070B50D4D04464FF491
:1008F0007A712878B1FBF0F00A490968B1FBF0F091
:1009000000F0BAFB48B9102C07D200222146501E35
:1009100000F030F800206C6070BD012070BD000058
:10092000000000200C0000200A4808B5016841F4CE
:1009300080410160006800F4804000900548001F7D
:10094000016841F080510160006800F08050009023
:1009500008BD000044380240002809DB00F01F02F7
:10096000012191404009800000F1E020C0F8001111
:1009700070470000F0B40E4B1B680C46C3F3022313
:10098000C3F10705042D00D90425191D072901D23B
:10099000002300E0DB1E012606FA05F1491E214076
:1009A00099409E40761E16403143F0BC01F040BC99
:1009B0000CED00E0064900F0070208684FF6FF035F
:1009C000184040EA0220034A1043086070470000C4
:1009D0000CED00E00000FA052DE9F0470E46050099
:1009E00065D0DFF81481D8F80000F7B200F00700F6
:1009F000B04207D288F80070D8F8000000F0070075
:100A0000B04254D128683D4C810712D5400703D528
:100A1000206840F4E05020602878000703D5206863
:100A200040F4604020602068A96820F0F00008438E
:100A300020602878C0072DD030496868083901281F
:100A400012D0022813D0032811D009688907002981
:100A50002DDA216821F0030101432160FFF7F0FD49
:100A6000814641F2883A0EE009688903EFE7096898
:100A70008901ECE7FFF7E4FDA0EB0901514502D93C
:100A80000320BDE8F0872068696800F00C00B0EB37
:100A9000810FEFD1D8F80010404601F00701B142B4
:100AA00007D90770006800F00700B04201D00120AC
:100AB000E7E72878400705D52068E96820F4E0508A
:100AC000084320602878000706D52068296920F4AB
:100AD000604040EAC100206000F038F82168084A10
:100AE000C1F30311515CC84006490860064800681C
:100AF000FFF7FAFE0020C4E7003C0240083802403D
:100B0000242800080C0000200400002004480549A7
:100B100000680968044AC1F38221515CC8407047EB
:100B20000C00002008380240342800080448054919
:100B300000680968044AC1F34231515CC8407047FB
:100B40000C0000200838024034280008154810B571
:100B5000006810F00C02144813D01449042A0FD076
:100B6000082A0ED10F4C241F2268236802F03F028E
:100B70005B0207D52068C0F38810A0FB010106E0E6
:100B8000084610BD2168C1F38811A1FB00010023B4
:100B9000FFF71CFB2168C1F30141491C4900B0FB70
:100BA000F1F010BD083802400024F40040787D01C7
:100BB0002DE9F84F04006ED02078DFF84C93C00781
:100BC000A9F104054AD009F104000168C1F38101CB
:100BD000012908D00068C0F3810002280AD1D9F8A1
:100BE0000000400206D52868800337D560680028D9
:100BF000E1D033E06068B0F5803F10D0B0F5A02FB1
:100C0000286810D020F480302860286820F48020E4
:100C100028606068A8B1FFF713FD06460DE028685C
:100C200040F48030F4E740F480202860F7E700BF0C
:100C3000FFF706FD801B642873D828688003F7D56A
:100C40000CE0FFF7FDFC064605E000BFFFF7F8FCEF
:100C5000801B6428F0D828688003F7D42078DFF858
:100C6000AC8280074FF0000A3ED5A748001D0168FE
:100C700011F00C0F08D00068C0F3810002280BD1DE
:100C8000D9F80000400207D42868800716D5E0682C
:100C9000012800D112E033E1E068B8B10120C8F8C2
:100CA0000000FFF7CDFC064605E000BFFFF7C8FCDB
:100CB000801B0228C0D828688007F7D528682169DA
:100CC00020F0F80040EAC10028600DE0C8F800A05C
:100CD000FFF7B6FC064604E0FFF7B2FC801B0228D3
:100CE0001FD828688007F7D42078000722D5864FC0
:100CF00087486169703771B101210160FFF7A0FC7D
:100D0000064604E0FFF79CFC801B022809D83868DF
:100D10008007F7D50EE0C0F800A0FFF791FC06466B
:100D200005E082E0FFF78CFC801B02287DD8386844
:100D30008007F7D42078400768D5DFF8CCB10027CA
:100D40000BF13C0BDBF80000C0000BD4DBF800100B
:100D500041F08051CBF80010DBF80000012700F0D3
:100D6000805000906B4E3068C00510D4306840F45D
:100D700080703060FFF764FC009005E0FFF760FCD6
:100D80000099401A022850D83068C005F6D55E4E4A
:100D9000A0686C3601280FD00528306810D020F0EC
:100DA00001003060306820F004003060A068B8B105
:100DB000FFF746FC00900FE0306840F00100F4E7D8
:100DC00040F004003060F7E7FFF73AFC0099411A61
:100DD00041F28830814266D830688007F4D50EE051
:100DE000FFF72EFC009007E0FFF72AFC0099411A5C
:100DF00041F28830814256D830688007F4D42FB150
:100E0000DBF8001021F08051CBF80010A069C8B3C6
:100E10003D49091D0968C1F3810102294AD0022810
:100E2000504607D0C8F8600000E03CE0FFF708FC3F
:100E300004463BE04746C8F86000FFF701FC064661
:100E400005E000BFFFF7FCFB801B02282BD82868B9
:100E50008001F7D4D4E907010843A16A2E4A490862
:100E600002EB0141626A41EA8211084394F82C10B6
:100E700040EA0161C9F8001001203866FFF7E0FB85
:100E8000044606E03EE000BFFFF7DAFB001B022845
:100E900009D828688001F7D534E000BFFFF7D0FB00
:100EA000001B022802D90320BDE8F88F28688001C2
:100EB000F4D427E00128F7D0D9F80000E26900F463
:100EC000800191421CD1226A00F03F01914217D16A
:100ED00047F6C071626A0140B1EB821F10D1A26A6D
:100EE0004FF0FF3300F4403103EB5202B1EB024FFD
:100EF00006D194F82C1000F07060B0EB016F01D0B7
:100F00000120D1E70020CFE704380240000047422B
:100F1000800E4742007000400000FFFF70B50400E3
:100F200009D0606A002540B125616561A56294F829
:100F3000510040B10CE0012070BD6068B0F5827FC7
:100F4000F4D0E561F2E784F85050204600F044F810
:100F5000022084F851002068016821F040010160FE
:100F6000A088218900F4827001F404410843A1891A
:100F700001F400610843217C01F002010843217D56
:100F800001F001010843218B01F400710843217F26
:100F900001F03801084394F8201001F08001084363
:100FA000218D01F40051084321680860A0690421E3
:100FB00001EA104094F8241001F010010843216860
:100FC00048602068C16921F40061C1616565012044
:100FD00084F85100002070BD70B586B0064614211B
:100FE0006846FFF73DF91F493068884237D11E48EF
:100FF0000025016841F480510160006800F48050D0
:10100000059019481438016841F001010160006839
:10101000694600F001000590E02000900220CDE933
:10102000010503200390052004901048FFF714FAEF
:10103000104C0F4820604FF0C06060604020C4E951
:10104000020525616561A561E5612562204665624D
:10105000FFF786F908B1FFF780F9B464A66306B01C
:1010600070BD0000003001404438024000000240E2
:10107000886402406401002010B5401EB0F1807FFA
:1010800001D3012010BD4FF0E02460610F216017F3
:1010900001F0CEF80020A06107202061002010BDE3
:1010A00070B590F83C20012A2CD0012480F83C40F7
:1010B000022280F83D2003685A689D6822F070067D
:1010C0000A6832435A60104B02689A420ED0B2F15D
:1010D000804F0BD00D4B9A4208D00D4B9A4205D051
:1010E0000C4B9A4202D00C4B9A4204D1496825F02D
:1010F00080031943916080F83D40002180F83C1046
:10110000084670BD022070BD000001400004004090
:1011100000080040000C00400040014010B586B0BF
:10112000044614216846FFF79BF80D492068884261
:1011300014D10C480021026842F0020202600068EB
:1011400000F002000590C02000900220CDE90101CE
:10115000CDE9031069460448FFF77EF906B010BDDB
:1011600000080040303802400004024070B50446D8
:1011700090F83C000D4601280AD0012084F83C007C
:1011800042B1042A18D0082A2AD00C2A4DD139E0BD
:10119000022070BD206800F085FD2068816941F063
:1011A000080181612068816921F004018161206862
:1011B00081692A69114311E0206800F09BFD2068D5
:1011C000816941F4006181612068816921F4806155
:1011D0008161206881692A6941EA0221816124E0F4
:1011E000206800F0B3FD2068C16941F00801C161C9
:1011F0002068C16921F00401C1612068C1692A69C0
:10120000114311E0206800F0CDFD2068C16941F470
:101210000061C1612068C16921F48061C1612068F9
:10122000C1692A6941EA0221C161002084F83C00B9
:1012300070BD10B5040003D094F83D0010B107E074
:10124000012010BD002084F83C00204600F01EF86C
:10125000022084F83D00211D206800F0C9FC012017
:1012600084F8460084F83E0084F83F0084F840008B
:1012700084F8410084F8420084F8430084F8440074
:1012800084F8450084F83D00002010BD08B50068D2
:101290000649884208D10648016841F0040101600E
:1012A000006800F00400009008BD00000008004045
:1012B0004038024010B50446022249B104290ED03C
:1012C000082913D094F84100012816D0012010BD40
:1012D00094F83E000128F9D184F83E200FE094F8FC
:1012E0003F000128F2D184F83F2008E094F8400044
:1012F0000128EBD184F8402001E084F8412001224C
:10130000206800F0C1FC12492068884203D1426C79
:1013100042F400424264206888420ED0B0F1804F0F
:101320000BD00C49884208D00B49884205D00B49A4
:10133000884202D00A49884204D1816801F007013D
:10134000062903D0016841F001010160002010BDB1
:10135000000001400004004000080040000C004074
:101360000040014070B5040004D094F83D00002511
:1013700010B106E0012070BD84F83C50204600F01A
:1013800023F8242084F83D002068C16821F400512E
:10139000C160204600F028FD2068016921F49041D9
:1013A00001612068416921F02A0141612068C1681A
:1013B00041F40051C1602564202084F83D0084F888
:1013C0003E00002070BD00002DE9F04186B00646C9
:1013D00014216846FEF744FFDFF80CC1316843482A
:1013E000022203230727424D0024614552D13F4981
:1013F0001431D1F800C04CF0100CC1F800C00968DD
:1014000001F010010591016841F0010101600068DF
:10141000694600F00100059058028DE81500CDE9FD
:1014200003372846FFF718F8334D32484FF000676E
:10143000E5E8020740204FF48068A5E811012E4836
:1014400045F81449AC61EC612C626C62FEF788FFD0
:1014500008B1FEF782FF7563AE63274D25486035FE
:1014600078382860C5E90174C5E903486C61AC614E
:10147000EC612C6228466C62FEF772FF08B1FEF741
:101480006CFFB563002211462520AE63FFF772FAA8
:10149000252023E0194EB14222D1144910310E68A3
:1014A00046F400360E60096801F4003105910168C8
:1014B00041F0010101600068694600F001000590FB
:1014C0000C208DE81500CDE903372846FEF7C4FF50
:1014D000002211462620FFF74DFA2620FFF73CFA9E
:1014E00006B0BDE8F0810000001001403038024035
:1014F00000000240B8640240940200200044004012
:10150000FEE70000114808B5016841F48001016060
:101510000068002200F48000009011463A20FFF796
:1015200029FA3A20FFF718FA002211464420FFF763
:1015300021FA4420FFF710FA002211464620FFF757
:1015400019FABDE808404620FFF706BA30380240D5
:101550002DE9F04186B014216846FEF781FE284847
:101560000024016841F004010160016801F00401F8
:101570000591016841F080010160016801F080017E
:101580000591016841F001010160016801F001016C
:101590000591016841F0020101600068194F00F0F7
:1015A00002004FF400550590002229463846FFF707
:1015B00041F8DFF854804FF4A056002231464046EF
:1015C000FFF738F800950125CDE901546946384602
:1015D0000394FEF741FF0420CDE9000402200290AD
:1015E00069464046FEF738FF0096CDE9015469464A
:1015F00040460394FEF730FF06B0BDE8F0810000DE
:101600003038024000080240000402400D4810B586
:101610000B4901600C49416000214FF48042816018
:10162000C0E9031241618161C1610162FFF70EF8F7
:10163000002803D0BDE81040FEF78FBE10BD0000AB
:101640000054004064000020A08601000D4810B541
:101650000B4901600C49416000214FF480428160D8
:10166000C0E9031241618161C1610162FEF7EEFFD1
:10167000002803D0BDE81040FEF76FBE10BD00008B
:10168000005C0040B8000020A0860100104810B5A2
:101690000E4901604FF48271416000210222816095
:1016A000C0E90312012242615202C0E9062101622F
:1016B000416281620A21C162FFF730FC002803D039
:1016C000BDE81040FEF749BE10BD000000300140EB
:1016D0000C01002010B58AB0002407941C21684634
:1016E0000894FEF7BDFD1A48184901606921C0E958
:1016F00001144FF47A51C0E903148461FFF799FD96
:1017000008B1FEF72AFE079407A911480894FFF7CD
:10171000C7FC08B1FEF721FE6020CDE90004029469
:10172000002269460A480494FFF720FD08B1FEF73D
:1017300014FE042269460648FFF718FD08B1FEF7BB
:101740000CFE0348FFF7EAFC0AB010BD0008004099
:10175000C40100200C4810B50A4901604FF4E13182
:101760004160002181600C22C160C0E904128161E6
:10177000C161FFF7F7FD002803D0BDE81040FEF778
:10178000ECBD10BD001001400C0200200C4810B54B
:101790000A4901604FF4E1314160002181600C226F
:1017A000C160C0E904128161C161FFF7DBFD00285F
:1017B00003D0BDE81040FEF7D0BD10BD004400408E
:1017C00050020020FEE700B50A4600F5966000F0E2
:1017D00013FDC2F596605DF804EB00F01BBDFEE75B
:1017E00010B5074C00224FF480512046FEF722FF2F
:1017F00020460122BDE810409102FEF71BBF000009
:1018000000040240A0B1D0ED101AC0ED111A90ED05
:101810000F1A80ED101AC0ED060A80ED070A30EEAF
:10182000C00A80ED0F0A017829B101293BD078E088
:101830009FED3D0A7047D0ED010A60EE801AC0EDC1
:10184000091AD0ED0A0A90ED022A42EE000A30EEA3
:10185000410AC0ED0A0A90ED0D2A80ED0E2A90EDA6
:101860000C2A80ED0D2A80ED0C0A90ED031A21EE72
:10187000001A80ED0B1A90ED050AF4EEC00AF1EEA5
:1018800010FA09DCB1EE400AF4EEC00AF1EE10FAEB
:1018900002D390ED0A0A01E080ED0A0A31EE800AD7
:1018A00030EE010A2BE070EE410A90ED012A20EEA5
:1018B000822A80ED092AD0ED020A60EE800AC0ED8E
:1018C0000A0AD0ED0D2A72EE200AC0ED0E2AD0EDE4
:1018D0000C2AC0ED0D2AF0EE002A01EE620A30EE6D
:1018E000210A80ED0C0A90ED031A21EE000A80ED2A
:1018F0000B0A30EE800AD0ED080A30EE200A80EDA7
:10190000080AD0ED040AB4EEE00AF1EE10FA06DCA3
:10191000F1EE600AB4EEE00AF1EE10FA01D2C0ED89
:10192000080A90ED080A704700000000B0EE401A67
:101930009FED540A00287CD090ED102A80ED112AEA
:10194000D0ED0F1AC0ED101AC0ED060A70EEC10AF4
:1019500080ED071AC0ED0F0A017811B101294DD0B1
:101960008CE090ED011A484921EE201A80ED091A09
:1019700090ED0A1A90ED022A02EE201A70EEE10AAA
:1019800080ED0A1A90ED0D2A80ED0E2A90ED0C2ABA
:1019900080ED0D2AC0ED0C0AD0ED031A61EEA00A0D
:1019A000C0ED0B0AD1ED001AF4EEE10AF1EE10FAE7
:1019B00009D2F1EE611AF4EEE10AF1EE10FA02DD5D
:1019C00080ED0B0A01E080ED090A90ED050AB4EE06
:1019D000C01AF1EE10FA06DCB1EE400AB4EEC01AFD
:1019E000F1EE10FA01D280ED0A0A90ED090AD0ED6D
:1019F0000A0A30EE200AD0ED0B0A2BE030EEE10AA5
:101A000090ED011A20EE010A80ED090A90ED021A0C
:101A100021EE201A80ED0A1AD0ED0D2AC0ED0E2A13
:101A2000D0ED0C2AC0ED0D2AF0EE002A41EEE20ABC
:101A300000E025E070EE820A30EE010AC0ED0C0AEB
:101A4000D0ED031A61EEA00AC0ED0B0A30EE200AB9
:101A5000D0ED080A30EE200A80ED080AD0ED040A25
:101A6000B4EEE00AF1EE10FA06DCF1EE600AB4EE34
:101A7000E00AF1EE10FA01D2C0ED080A90ED080A72
:101A8000704700000000000010000020002828D04F
:101A9000002A26D0017092ED001A80ED011A92ED15
:101AA000011A80ED021A92ED021A80ED031A80ED00
:101AB000040A9FED0C0AC0ED050A80ED0E0A80EDC8
:101AC0000D0A80ED0C0A80ED080A80ED0B0A80ED0E
:101AD0000A0A80ED090A80ED110A80ED100A80EDF6
:101AE0000F0A70470000000070470000104A10B550
:101AF00011680B6823F040030B600E490B684FF62A
:101B0000C77423400B600B6803430B60086820F028
:101B10000200086008680860086820F0010008609A
:101B2000086808601068016841F04001016010BD5C
:101B30000C010020003001407047FEF7B3BE0000EA
:101B400030B593B030216846FEF78AFB14210CA80B
:101B5000FEF786FB1D480025016841F080510160B9
:101B6000006800F0805011901948016821F440414C
:101B700041F4004101600068022400F440401190EB
:101B800001200090000401908001CDE90640192059
:101B90000890A820CDE9090404200B906846FFF7BF
:101BA00007F808B172B6FEE70CA90F2081E83100F2
:101BB0004FF48050CDE90F0502210CA8FEF70CFF71
:101BC000002801D072B6FEE713B030BD40380240A5
:101BD000007000400548016841F47001016003494C
:101BE0004FF00060803908607047000088ED00E029
:101BF000F0B502681D4B1E4C9F031E4D1E4E9842B1
:101C000007D0B84205D0A04203D0A84201D0B042CC
:101C100004D122F0700C4A6842EA0C02984210D0BB
:101C2000B8420ED0A0420CD0A8420AD0B04208D090
:101C3000124CA04205D0124CA04202D0114CA0423E
:101C400003D122F44074CA6822434C6922F0800216
:101C5000224302608A68C2620A688262984201D1A5
:101C60000969016301214161F0BD000000000140EC
:101C70000004004000080040000C0040004001400B
:101C8000004401400048014010B501F01F0301214C
:101C9000046A99408C430462016A9A4011430162CC
:101CA00010BD000030B5026A22F001020262026A31
:101CB0004368846924F073050C682C4322F0020504
:101CC0008A682A430A4DA8420BD122F00805CA6847
:101CD00023F440732A434D6922F004021D438B69AB
:101CE0002B434360846149684163026230BD000058
:101CF0000000014030B5026A22F010020262026A5E
:101D0000436884690D6824F4E64444EA05248D6838
:101D100022F0200242EA05120B4DA8420ED1CD68F6
:101D200022F0800242EA05124D6923F4406343EA3F
:101D300085038D6922F0400243EA85034360846194
:101D400049688163026230BD0000014030B5026A1B
:101D500022F480720262036A4268C46923F4007349
:101D600024F073050C682C438D6843EA05230C4D61
:101D7000A8420ED1CD6823F4006343EA05234D69E0
:101D800022F4405242EA05128D6923F4806342EA4C
:101D900005124260C4614968C163036230BD00003E
:101DA0000000014030B5026A22F480520262046AE7
:101DB0004268C3690D6823F4E64343EA05238D684E
:101DC00024F4005444EA0534064DA84204D14D6978
:101DD00022F4804242EA85124260C361496801648C
:101DE000046230BD0000014070B50446006801691E
:101DF000E26821F44051114301612169A068E26960
:101E000008436169114308432168CA6849F20C63B9
:101E10009A430243CA6020684169A26921F4407173
:101E20001143416131492068884202D030498842DB
:101E300002D1FEF77BFE01E0FEF768FEE2690023B7
:101E4000192164253226B2F5004F626828D0A0FB24
:101E50000101930F9200FEF7B9F90146B0FBF5F0CE
:101E60006FF01802504301EB800006EB0010B0FB4E
:101E7000F5F000F0F002B1FBF5F002EB0012B1FB5F
:101E8000F5F06FF01803584301EB800006EB0010EB
:101E9000B0FBF5F000F00F0021681044886070BDC1
:101EA000A0FB010192185B41FEF790F90146B0FBDF
:101EB000F5F00201B1FBF5F06FF01803584301EBA8
:101EC000800006EBC000B0FBF5F000F0F80002EB7C
:101ED0004002B1FBF5F0584301EB800006EBC00077
:101EE000B0FBF5F000F00700D6E70000001001405D
:101EF000001401401F4818B40068C00637D51E48BA
:101F000001680A6849680091816B09680A681B4B7F
:101F100012030A684FF4807422F001020A60816B98
:101F200009684A68C2F5807292B21A804C60816B6F
:101F300009680B680CD443F400230B60806B0068C5
:101F4000016841F0010101600D4901F580600BE07D
:101F500023F400230B60806B0068016841F00101ED
:101F60000160084901F5407018BC00F0C3BA18BC04
:101F700070470000001001400C02002014000020F7
:101F8000540300205404002018B50F480068800650
:101F900015D50E48002300680168406800900A4883
:101FA000001D0068C1B20A480A2909D00278841CC1
:101FB000A154521CD1B20170042900D1037018BD84
:101FC00001214170FAE70000004400405002002067
:101FD0005C000020F0B52DED048B93B0DFED7E8A20
:101FE0009FED7E9A7E4F7F4E07F12804B7EE008A60
:101FF00004F10805012817D002287CD148227A492B
:102000006846FEF714F9FEF71BFB796A401A40F6A2
:10201000B83188426BD3FEF713FB7862B869401C75
:10202000B861082861D062E03878DFED709A40B17D
:10203000C7ED028A87ED039AC4ED009AC5ED009AB8
:102040002DE03178FF292AD07078FF2827D000EEC4
:10205000101AD7ED040A97ED021AB8EE400A20EEE6
:10206000200A78EE600A01EE200A00EE900AF8EEEF
:10207000600A87ED020A97ED051AD7ED031A30EED4
:10208000680A60EE810A38EE411A41EE810AC7ED16
:10209000030A84ED000A30EEC90A85ED000A94EDCA
:1020A000000AF0EE690A5248B1EE400AFFF73EFC22
:1020B000BDEEC00A10EE100A606095ED000A4C48B3
:1020C000F0EE690AB1EE400A4830FFF72FFCBDEE92
:1020D000C00A10EE100A68606968606813B0BDEC51
:1020E000048BBDE8F040FFF76EBB0020B8613846B6
:1020F0006A46BF6900E06BE05DF8371002EBC7028B
:102100000B46526890F800C04339A2F14B07BCF16E
:10211000000F0AD000EE103A00EE902AB8EEC00A86
:10212000F8EEE00A80ED020A23E03378FF2B2AD094
:102130007278FF2A27D000EE103AD0ED040A90ED15
:10214000021AB8EE400A20EE200A78EE600A01EE8C
:10215000200A00EE902AF8EE600A80ED020A90ED67
:10216000051AD0ED031A60EE810A38EE411A41EEED
:10217000810A30EE680AC0ED030A84ED000A30EEF1
:10218000C90A85ED000A94ED000A00EE901A18487D
:10219000B1EE400AF8EEE00AFFF734FBBDEEC00AEC
:1021A00010EE100A606095ED000A00EE907A10487B
:1021B000B1EE400AF8EEE00A4830FFF723FBBDEE2F
:1021C000C00A10EE100A686069686068FFF7FBFAE1
:1021D00013B0BDEC048BF0BD0000864200009642B7
:1021E000240000205E0000203C28000800000000C1
:1021F00028080020FEE700004FF4FA61884203DA65
:102200004FF4C871884200DC0846014908607047F5
:10221000340800404FF4FA61884203DA4FF4C87181
:10222000884200DC084601490860704738080040D1
:102230000907090E002804DB00F1E02080F80014F3
:10224000704700F00F0000F1E02080F8141D704787
:1022500002E008C8121F08C1002AFAD1704770476F
:10226000002001E001C1121F002AFBD170470000CD
:1022700010B500F067FAFFF7B3FA0A4C206801685E
:1022800041F04001016000F08FF92068416841F0A1
:10229000020141606420FEF7CDF8BDE8104018202F
:1022A000FFF724BC0C01002010B500F0BBF9074873
:1022B00000F010F8FEF7C4F9054C2168401AB0F59B
:1022C000FA7F02D3FEF7BCF9206010BD540700204E
:1022D00018000020F0B585B0002507468DF80C5099
:1022E0008DF810502E468DF8045000F041F900286A
:1022F0000CD0264C207890B1012816D0022820D08E
:10230000032803D12570224800F044F805B0F0BD41
:10231000012203A9384600F0A3F8401CF6D09DF82E
:102320000C00A528F4D101202070384600F020F9D7
:102330002628EBDB24221649384600F091F80220CB
:102340002070384600F014F90228DFDB012201A9D1
:10235000384600F085F80E4923200A5C401E3244BE
:10236000D6B2C0B2F9D2012204A9384600F078F8FA
:102370009DF80400864203D19DF810005A2801D030
:102380002570C3E703202070BCE700001C0000207C
:10239000FF070020F0B506684768D0F808C0C3689A
:1023A000046945698269C169D0F820E0064880E87F
:1023B000C010064880E83800054802600548016002
:1023C0000548C0F800E0F0BD2C080020740800208B
:1023D00034000020380000201000002010B5002438
:1023E0002DED040B13211D48FDF73AFF1B48A521D5
:1023F0000170694603190A5D641CE4B25A70042C2A
:10240000F8D3002101AA4418535C491CC9B2637176
:102410000429F8D3002102AA4418535C491CC9B20C
:1024200063720429F8D3002103AA4418535C491CA1
:10243000C9B263730429F8D30121427C435C491C6F
:102440001A44C9B242741129F7D35A21817404B0D5
:102450001321BDE81040014800F020B9EC0700202E
:102460002DE9F0475FEA01080546EFF3108672B6E2
:1024700030D0EC6874B329696868814201D9296851
:102480002961944200DD1446471A7F1CA74206DBEF
:1024900022464046FDF7CBFE286920440EE0A4EB1F
:1024A00007093A464046FDF7C2FE08EB07004A46D8
:1024B0002968FDF7BCFE296801EB09002861A868BE
:1024C0002044A860E868001BE860204686F3108876
:1024D000BDE8F08786F310884FF0FF30F8E78B18DF
:1024E0005B1E0160C0E901320022C0E903214161A5
:1024F000104670472DE9F0475FEA01080546EFF303
:10250000108672B62FD0AC686CB36968686988426F
:1025100001D928686861944200DD14460F1A7F1CB7
:10252000A74206DB22464146FDF781FE686920444A
:102530000DE0A4EB07093A464146FDF778FE08EBAB
:1025400007014A462868FDF772FE2868484468611A
:10255000A868001BA860E8682044E860204686F36D
:102560001088BDE8F08786F310884FF0FF30F8E759
:10257000C0687047FEF79EF9FFF7E2FAFEF7E8FF42
:10258000FEF7C0FFFFF7E6F8FFF780F8FFF73EF829
:10259000FFF75CF8FFF79EF8FFF7F8F8FFF768FE23
:1025A000FFF782FEFCE7000010B519482DED028B05
:1025B0000068C16841F02001C16000211548FEF7A4
:1025C00079FE04211348FEF775FE14489FED120AA8
:1025D0009FED138A80ED000A80ED010A80ED020A6A
:1025E0000246F0EE480AB0EE480A00219038FFF7A4
:1025F0004DFAF0EE480AB0EE480ABDEC028B00211D
:10260000064ABDE81040A2F14800FFF73FBA0000BB
:1026100050020020C401002000000000B808002083
:1026200000401C4610B5FEF70BF8194CE169401A42
:10263000616888422BD3FEF703F8E0611548017802
:10264000FF2902D14078FF2804D0FDF7F9FF20626E
:10265000002007E0FDF7F4FF216A401AB0F5FA6F99
:1026600001D3012020700120FFF7B4FC0A48D0ED0F
:10267000081A483890ED081A05483030D0ED000AA5
:10268000083890ED000ABDE81040FFF7A7BE10BD66
:10269000240000205E000020700800202DE9F04397
:1026A000894623490A681368224FDC07224D234ECE
:1026B000234B17D0DFF87CC0ACF1540CACF104080C
:1026C000BA4202D9DCF8004009E0AA4202D9D8F89F
:1026D000004004E0B24201D95C6800E01C6814F0DC
:1026E000006FEDD0146824F0010414600A681468C7
:1026F000E407F7D14FF00064BA4202D90D4B4C3BCE
:1027000003E0AA4203D90B4B503B1C6004E0B242E9
:1027100001D9DC6000E09C60D0600A68C2F80490D7
:102720000868016841F001010160BDE8F083000024
:102730009402002058640240B86002405860024091
:10274000006002402D4910B54FF4007201F5007091
:10275000FFF7C5FE2A4801684A6942F040024A6113
:1027600001684A6942F080024A610068C16841F02C
:102770001001C160234801680A6822F001020A6062
:1027800001680A68D207F7D11F4C4FF40012A1422A
:1027900002D91D4B4C3B04E01C4B994203D91A4B08
:1027A000503B1A6008E0194C184B603CB83BA14202
:1027B00001D9DA6000E09A60154A8A600368154919
:1027C000D960036801F5807119610368911559603A
:1027D00001680B6843F480230B600068016841F0D6
:1027E000010101600C4801680B6823F001030B60D4
:1027F00001680B68DB07F7D18A6010BD5405002023
:102800000C020020F402002058640240B86002402C
:10281000041001405403002094020020000610160A
:102820000006101600000000000000000102030472
:102830000607080900000000010203042D00000043
:10284000250000002D000000480000002D000000C1
:102850007400000045000000260000004500000054
:102860004F00000045000000760000005D00000001
:10287000280000005D0000004E0000005C00000029
:1028800075000000A428000800000020640000007B
:10289000502200080829000864000020640C000091
:1028A000602200080100000010000000000000008D
:1028B0000024F40000000000000000000000000000
:1028C00000000000000000000000000014000000F4
:1028D0000000000000000000CDCC4C3ECDCC4C3EB2
:1028E00000000000000000000000000000000000E8
:1028F00000000000000000000000000000000000D8
:082900000000000000000000CF
:040000050800019559
:00000001FF
